:020000040000FA
:040000008A110B282E
:10000800FE00030EF0000A08F1008A1121298A1166
:100018000D2883018A1110288316031391010730D4
:1000280083120313990007308316031385003030B9
:100038008312031385008316031381130730950079
:10004800870167308312031387008E018F013030D8
:1000580090008518302831286E288230F300DD3072
:10006800F200F20B3528F30B35283A2883120313D4
:100078001014851C402841283D280C1C442845287C
:100088006A280711871510100C1005184C284D28E0
:1000980049288230F300DD30F200F20B5128F30BCF
:1000A8005128562883120313051C5B285C28562800
:1000B80005124130F300EE30F200F20B6128F30B29
:1000C80061280000831203130516492810108E01B9
:1000D8008F010C10C330F300CD30F200F20B722800
:1000E800F30B72288312031305187B287C28A82891
:1000F80085187F288028A8284130F300EE30F200C8
:10010800F20B8428F30B84280000831203131014C5
:10011800051C8F2890288C28851C932894288C28C7
:100128000C1C97289828A028871C9B289C289E2868
:100138008710A1288714A128000083120313101028
:100148008E018F010C1015290518AB28AC28DF2863
:100158004130F300EE30F200F20BB028F30BB02878
:100168000000831203131014051CBB28BC28B828F0
:100178000C1CBF28C028CE2887124130F300EE306F
:10018800F200F20BC528F30BC528000083120313F5
:100198008716DB2805124130F300EE30F200F20B2F
:1001A800D328F30BD328000083120313051610106D
:1001B8008E018F01A6288518E228E32814294130EA
:1001C800F300EE30F200F20BE728F30BE72800000B
:1001D800831203131014851CF228F328EF280C1C33
:1001E800F628F728052907104130F300EE30F20011
:1001F800F20BFC28F30BFC280000831203130714EE
:10020800122985124130F300EE30F200F20B0A2970
:10021800F30B0A2900008312031385161010DC283B
:10022800000083120313051D1A291B291D2907160F
:100238006E2807126E288A110B2871088A00700E22
:080248008300FE0E7E0E09008A
:02400E00D430AC
:00000001FF
