:020000040000FA
:040000008A110B282E
:10000800FE00030EF0000A08F1008A1196288A11F2
:100018000D2883018A1110288316031391010730D4
:1000280083120313990007308316031385003030B9
:100038008312031385008316031381130730950079
:10004800870167308312031387008E018F013030D8
:1000580090008518302831282D288518342835280F
:1000680072288230F300DD30F200F20B3928F30BEE
:1000780039283E28831203131014851C4428452868
:1000880041280C1C482849286E280711871510108C
:100098000C100518502851284D288230F300DD3007
:1000A800F200F20B5528F30B55285A288312031334
:1000B800051C5F2860285A2805124130F300EE30ED
:1000C800F200F20B6528F30B652800008312031376
:1000D80005164D2810108E018F010C10FF30831269
:1000E800031387000330F4008A30F3005530F20020
:1000F800F20B7C28F30B7C28F40B7C2883288312D2
:10010800031387010330F4008A30F3005530F200FE
:10011800F20B8C28F30B8C28F40B8C28932872286C
:100128008A110B2871088A00700E8300FE0E7E0E5D
:020138000900BC
:02400E00D430AC
:00000001FF
