:020000040000FA
:040000008A110B282E
:10000800FE00030EF0000A08F1008A1109298A117E
:100018000D2883018A1110288316031391010730D4
:1000280083120313990007308316031385003030B9
:100038008312031385008316031381130730950079
:10004800870167308312031387008E018F013030D8
:1000580090008230F300DD30F200F20B3128F30B10
:10006800312836288312031385183B283C286E282C
:100078001014851C402841283D280C1C442845287C
:100088006A280711871510100C1005184C284D28E0
:1000980049288230F300DD30F200F20B5128F30BCF
:1000A8005128562883120313051C5B285C28562800
:1000B80005124130F300EE30F200F20B6128F30B29
:1000C80061280000831203130516492810108E01B9
:1000D8008F010C10051C7128722876288518752840
:1000E8007628FC288230F300DD30F200F20B7A2803
:1000F800F30B7A287F288312031305188428852890
:10010800A628851888288928A6281014051C8D2853
:100118008E288A28851C912892288A280C1C9528C4
:1001280096289E28871C99289A289C2887109F28FB
:1001380087149F2800008312031310108E018F016B
:100148000C10FD280518A928AA28D2281014051C67
:10015800AE28AF28AB280C1CB228B328C1288712B8
:100168004130F300EE30F200F20BB828F30BB82858
:100178000000831203138716CE2805124130F300BE
:10018800EE30F200F20BC628F30BC62800008312EB
:100198000313051610108E018F01A4288518D52881
:1001A800D628FC281014851CDA28DB28D7280C1C34
:1001B800DE28DF28ED2807104130F300EE30F2008A
:1001C800F20BE428F30BE42800008312031307144E
:1001D800FA2885124130F300EE30F200F20BF228D3
:1001E800F30BF22800008312031385161010CF2892
:1001F800000083120313051D022903290529071688
:100208006E2807126E288A110B2871088A00700E52
:080218008300FE0E7E0E0900BA
:02400E00D430AC
:00000001FF
