:020000040000FA
:040000008A110B282E
:10000800FE00030EF0000A08F1008A1114298A1173
:100018000D2883018A1110288316031391010730D4
:1000280083120313990007308316031385003030B9
:100038008312031385008316031381130730950079
:10004800870167308312031387008E018F013030D8
:10005800900085183028312872288230F300DD306E
:10006800F200F20B3528F30B35283A2883120313D4
:100078001014851C402841283D280C1C442845287C
:100088006E280711871510100C1005184C284D28DC
:1000980049288230F300DD30F200F20B5128F30BCF
:1000A8005128562883120313051C5B285C28562800
:1000B80005120330F4008A30F3005530F200F20BD9
:1000C8006328F30B6328F40B63286A28831203134D
:1000D8000516492810108E018F010C10C330F3004B
:1000E800CD30F200F20B7628F30B76288312031337
:1000F80005187F288028A128851883288428A12806
:100108001014051C882889288528851C8C288D288A
:1001180085280C1C902891289928871C94289528B4
:10012800972887109A2887149A28000083120313A7
:1001380010108E018F010C1008290518A428A52875
:10014800D5281014051CA928AA28A6280C1CAD28F7
:10015800AE28C02887120330F4008A30F3005530E7
:10016800F200F20BB528F30BB528F40BB528BC2820
:10017800831203138716D12805120330F4008A303E
:10018800F3005530F200F20BC728F30BC728F40B25
:10019800C728CE2883120313051610108E018F016D
:1001A8009F288518D828D92807291014851CDD28E8
:1001B800DE28DA280C1CE128E228F428071003308E
:1001C800F4008A30F3005530F200F20BE928F30B03
:1001D800E928F40BE928F0288312031307140529EA
:1001E80085120330F4008A30F3005530F200F20B28
:1001F800FB28F30BFB28F40BFB28022983120313BB
:1002080085161010D228000083120313051D0D292E
:100218000E29102907167228071272288A110B282E
:0E02280071088A00700E8300FE0E7E0E090023
:02400E00D430AC
:00000001FF
