:020000040000FA
:040000008A110B282E
:10000800FE00030EF0000A08F1008A1135298A1152
:100018000D2883018A1110288316031391010730D4
:1000280083120313990007308316031385003030B9
:100038008312031385008316031381130730950079
:10004800870167308312031387008E018F013030D8
:1000580090008518302831286E288230F300DD3072
:10006800F200F20B3528F30B35283A2883120313D4
:100078001014851C402841283D280C1C442845287C
:100088006A280711871510100C1005184C284D28E0
:1000980049288230F300DD30F200F20B5128F30BCF
:1000A8005128562883120313051C5B285C28562800
:1000B80005124130F300EE30F200F20B6128F30B29
:1000C80061280000831203130516492810108E01B9
:1000D8008F010C104130F300EE30F200F20B722861
:1000E800F30B7228000083120313051C7C287D285B
:1000F800812885188028812829294130F300EE308D
:10010800F200F20B8528F30B8528000083120313F5
:1001180005188F289028BC28851893289428BC286F
:100128004130F300EE30F200F20B9828F30B9828D8
:100138000000831203131014051CA328A428A02868
:10014800851CA728A828A0280C1CAB28AC28B428F4
:10015800871CAF28B028B2288710B5288714B5287F
:1001680000008312031310108E018F010C1029292F
:100178000518BF28C028F3284130F300EE30F200FC
:10018800F20BC428F30BC4280000831203131014C5
:10019800051CCF28D028CC280C1CD328D428E2282A
:1001A80087124130F300EE30F200F20BD928F30B3E
:1001B800D9280000831203138716EF28051241304F
:1001C800F300EE30F200F20BE728F30BE72800000B
:1001D80083120313051610108E018F01BA28851893
:1001E800F628F72828294130F300EE30F200F20B08
:1001F800FB28F30BFB280000831203131014851C43
:100208000629072903290C1C0A290B291929071073
:100218004130F300EE30F200F20B1029F30B1029F5
:100228000000831203130714262985124130F300B6
:10023800EE30F200F20B1E29F30B1E290000831288
:10024800031385161010F028000083120313051DF0
:100258002E292F29312907166E2807126E288A1190
:100268000B2871088A00700E8300FE0E7E0E0900AE
:02400E00D430AC
:00000001FF
